:1000000053C0BDC16AC069C068C067C066C065C072
:1000100064C063C062C061C060C05FC05EC05DC0DC
:100020005CC05BC05AC004030904200363006F0076
:100030006400650061006E0064006C006900660089
:1000400065002E0063006F006D001003500061001A
:1000500073007300670065006E001201100100005C
:100060000008C016DB27000101020001090222007E
:1000700001010080190904000001030101000921A8
:10008000010100012219000705810308000A050C7F
:100090000901A101850119002A3C021500263C0234
:1000A000950175108100C00011241FBECFEDCDBF9A
:1000B00010E0A0E6B0E0E6ECF7E002C005900D929B
:1000C000A236B107D9F710E0A2E6B0E001C01D9258
:1000D000A83AB107E1F7A7D274C392CF85B782607F
:1000E00085BF8BB780648BBF8BE480937C008AE5EF
:1000F00080937B0008951F93CF93DF9390918C00A2
:10010000935097FDA6C020918900809188008D3280
:1001100009F09DC0983009F09AC0CCE0D0E0C21B35
:10012000D109C057DF4F83EC809370008AE580933C
:100130006000109262008881807621F0CE0140D26A
:10014000282F7CC09A81109279008981882321F41C
:1001500010927A0022E06CC0853019F490938D00E3
:1001600066C0863009F04FC08B81813041F48AE54A
:1001700090E090938B0080938A0022E140C082300F
:1001800041F48CE690E090938B0080938A0022E209
:1001900036C08330F9F48A81882341F486E290E006
:1001A00090938B0080938A0024E029C0813041F431
:1001B0008AE290E090938B0080938A0020E21FC037
:1001C0008230E1F48AE490E090938B0080938A007F
:1001D00020E115C0813241F48EE790E090938B00CE
:1001E00080938A0029E00BC0823241F48EE890E0CF
:1001F00090938B0080938A0029E101C020E080E485
:10020000809362001BC0883021F421E08FE890E0E9
:1002100011C0893019F490938F0009C08A3011F40D
:1002200021E006C08B3019F48BE480937C0020E041
:1002300089E790E090938B0080938A008F818823D8
:1002400021F48E81821708F4282F209361001092E8
:100250008C008091600084FF49C0809161008F3FD5
:1002600009F444C0182F893008F018E0811B8093EE
:1002700061008091700098E88927809370001123B5
:1002800041F120918A0030918B008091620086FFBD
:100290000DC0A1E7B0E080E090E0F901E80FF91FA0
:1002A000E491ED9301961817C1F708C0912FD90179
:1002B000E1E7F0E08D9181939150E1F71150812FAA
:1002C00090E01F5F0196820F931F90938B008093A5
:1002D0008A0081E790E0612F4ED0612F6C5F6C3017
:1002E00019F08FEF809361006093600094E180B318
:1002F0008C7031F49150D9F710928D0010928700D4
:10030000DF91CF911F9108951F93DC01162F8091EB
:100310007B0084FF07C080917C0098E88927809348
:100320007C0003C08AE580937B00912FEDE7F0E02D
:100330008D91819391501916DCF38DE790E0612F38
:100340001AD01C5F10937B001F910895A82FB92F1E
:1003500080E090E041E050EA609530E009C02D91E6
:1003600082279795879510F084279527305EC8F3EC
:100370006F5FA8F30895EADF8D939D930895CF935F
:10038000CFB7CF93DF93C395839BE9F7839B0BC0D4
:10039000839B09C0839B07C0839B05C0839B03C0CD
:1003A000839B01C08BC06F93C0918900DD27C0572C
:1003B000DF4F2F9365E5839B03C02F916F91E6CFAD
:1003C0000F931F934F9320E040E15F9300B30C70B5
:1003D00003FB27F93F9350E03BE039C01C704064B9
:1003E0002F77012F5F5F1EC0406810B31C702F77FE
:1003F00052501FC0406400B32F770C70D1F15F5F83
:1004000000C023C0406210B32F771C7091F15F5F72
:1004100000C025C00C701027515012F45D5F000021
:10042000115027952C3F10B3C8F61C7001270150BE
:1004300027952C3FC8F64227499300B30C7010272C
:100440004F73115027952C3FA8F64695469510B34B
:100450001C7079F00127015027952C3F98F66B5AB4
:1004600060F3315000B3B0F600C010E41ABF0027AB
:1004700019C03B503195C31BD04010E41ABF08810E
:10048000033C09F10B34F9F0209187001981110F19
:100490001213EDCF4A81441F093651F10D3211F08C
:1004A000013E29F700938E003F915F914F911F917C
:1004B0000F912F916F91CAB7C6FD65CFDF91CF9194
:1004C000CFBFCF91189520918E00222369F3109110
:1004D0008C00112391F5343092F130938C002093ED
:1004E0008800109189003BE0311B3093890027C0C0
:1004F00000918C0001300CF50AE54F7049F4309101
:10050000600034FD1DC000936000C0E7D0E01CC057
:1005100030917B0034FD14C000937B00CCE7D0E029
:1005200013C0052710E000C0000002BB1AC0052759
:1005300010E0221F1DC010E021C04AE502C032EDCC
:10054000432FC4E1D0E032E011B31C60939A02B3B0
:1005500011BB5CE020E865E320FF052702BB27957F
:1005600017951C3FF0F66695B8F7B1F720FF052701
:1005700002BB279517951C3FD0F62795179517FFB7
:10058000052700001C3F02BBB0F629913A9519F7E8
:10059000037F10918D00110FC651D04002BB11F0A6
:1005A0001093870010E41ABF086011B3137F402F27
:1005B000437F54E05A95F1F702BB11BB42BB74CFA5
:1005C000FC0180818076803261F581818230E1F0AA
:1005D000833018F4813029F505C0893079F08A30EC
:1005E00001F51AC087E690E090938B0080938A0013
:1005F000109267001092690088E0089586819781C3
:10060000019779F48FEF08958FE690E090938B0037
:1006100080938A0081E00895838180936F0080E059
:10062000089580E008954F925F926F927F928F922B
:100630009F92AF92BF92CF92DF92EF92FF920F9371
:100640001F93DF93CF930F92CDB7DEB72EE027BB7A
:10065000C09AC49A88E190E00FB6F894A89581BD3D
:100660000FBE21BDC29AC19839DD8B9A20E030E0DF
:1006700040E45FE1A895CA010197F1F72F5F3F4F72
:100680002A3F3105B9F78B9881E08093640010927E
:1006900066007894FF24898360E4A62E6FE1B62E6D
:1006A00055E3652E4AE1742E30E4C32E3CE9D32E87
:1006B00029EE822E9AEE992E8DECE82E01C0FF24B1
:1006C000A89519DDB09917C09981913021F4C2988D
:1006D000C19A198204C0C29AC198E1E0E98300E09E
:1006E00010E009DDA895C5010197F1F70F5F1F4FD5
:1006F0000A3F1105B1F7F981F13011F7C39A862D40
:100700008A95F1F7C3984424552400E010E0A89599
:10071000F2DCB49B03C00894411C511C872D8A95C0
:10072000F1F70F5F1F4F84E0023E180781F791E554
:100730004916510440F4FF2031F4E0926300FF2495
:10074000F39411E014C0C20181559040CC9718F485
:10075000909263000BC0E4E7FFEF4E0E5F1EF7E7D9
:100760004F16510408F0ABCF809263001AE0C3DC4F
:10077000A8951150809163008093650084E690E015
:1007800063E0C2DDC6010197F1F71092650084E6CF
:1007900090E063E0B9DDC6010197F1F7112339F765
:1007A000C19AC29A00E010E0A6DCA895C5010197A5
:1007B000F1F70F5F1F4F06391105B1F7C198C29AC3
:0607C0007FCFF894FFCF8B
:0207C6005AFFD8
:00000001FF
